{
  "contractName": "MySale",
  "abi": [
    {
      "constant": false,
      "inputs": [
        {
          "name": "howMuch",
          "type": "uint256"
        }
      ],
      "name": "printCoin",
      "outputs": [],
      "payable": false,
      "stateMutability": "nonpayable",
      "type": "function"
    },
    {
      "constant": true,
      "inputs": [],
      "name": "allCoins",
      "outputs": [
        {
          "name": "",
          "type": "uint256"
        }
      ],
      "payable": false,
      "stateMutability": "view",
      "type": "function"
    },
    {
      "constant": true,
      "inputs": [],
      "name": "myCoin",
      "outputs": [
        {
          "name": "",
          "type": "uint256"
        }
      ],
      "payable": false,
      "stateMutability": "view",
      "type": "function"
    }
  ],
  "bytecode": "0x606060405260018055341561001357600080fd5b6101ac806100226000396000f300606060405260043610610057576000357c0100000000000000000000000000000000000000000000000000000000900463ffffffff168063773842bf1461005c578063bedb1afb1461007f578063ebd253d0146100a8575b600080fd5b341561006757600080fd5b61007d60048080359060200190919050506100d1565b005b341561008a57600080fd5b610092610130565b6040518082815260200191505060405180910390f35b34156100b357600080fd5b6100bb610176565b6040518082815260200191505060405180910390f35b806000803373ffffffffffffffffffffffffffffffffffffffff1673ffffffffffffffffffffffffffffffffffffffff168152602001908152602001600020600082825401925050819055508060016000828254019250508190555050565b60008060003373ffffffffffffffffffffffffffffffffffffffff1673ffffffffffffffffffffffffffffffffffffffff16815260200190815260200160002054905090565b60006001549050905600a165627a7a723058208daa9f47e99667f6a7337e1685376b4ddbeabdd26204e95160467eba4cc576790029",
  "source": "pragma solidity ^0.4.4;\n\ncontract MySale {\n  mapping(address => uint) balance;\n  uint total_coins = 1;\n  function printCoin(uint howMuch) public{\n  \tbalance[msg.sender] += howMuch;\n  \ttotal_coins += howMuch;\n  }\n  function allCoins() constant public returns(uint){\n  \treturn total_coins;\n  }\n\n  function myCoin() constant public returns(uint){\n   return balance[msg.sender];\n  }\n}\n",
  "sourcePath": "/Users/admin/Desktop/truftest/contracts/MySale.sol",
  "compiler": {
    "name": "solc",
    "version": "0.4.19+commit.c4cbbb05.Emscripten.clang"
  },
  "schemaVersion": "1.0.1",
  "updatedAt": "2018-02-25T22:22:34.643Z"
}